{
  "contractName": "Base",
  "abi": [
    {
      "constant": true,
      "inputs": [
        {
          "name": "",
          "type": "uint256"
        }
      ],
      "name": "takenSubscribers",
      "outputs": [
        {
          "name": "",
          "type": "address"
        }
      ],
      "payable": false,
      "stateMutability": "view",
      "type": "function"
    },
    {
      "anonymous": false,
      "inputs": [
        {
          "indexed": false,
          "name": "id",
          "type": "uint256"
        },
        {
          "indexed": false,
          "name": "foreman",
          "type": "address"
        },
        {
          "indexed": false,
          "name": "subscribers",
          "type": "address[]"
        },
        {
          "indexed": false,
          "name": "chitPeriod",
          "type": "uint16"
        },
        {
          "indexed": false,
          "name": "timeStamp",
          "type": "uint256"
        }
      ],
      "name": "createChit",
      "type": "event"
    },
    {
      "anonymous": false,
      "inputs": [
        {
          "indexed": false,
          "name": "foreman",
          "type": "address"
        },
        {
          "indexed": false,
          "name": "subscribers",
          "type": "address[]"
        },
        {
          "indexed": false,
          "name": "chitPeriod",
          "type": "uint16"
        },
        {
          "indexed": false,
          "name": "timeStamp",
          "type": "uint256"
        }
      ],
      "name": "transferChit",
      "type": "event"
    },
    {
      "anonymous": false,
      "inputs": [
        {
          "indexed": false,
          "name": "token",
          "type": "address"
        },
        {
          "indexed": false,
          "name": "user",
          "type": "address"
        },
        {
          "indexed": false,
          "name": "amount",
          "type": "uint256"
        },
        {
          "indexed": false,
          "name": "balance",
          "type": "uint256"
        }
      ],
      "name": "Deposit",
      "type": "event"
    },
    {
      "anonymous": false,
      "inputs": [
        {
          "indexed": false,
          "name": "token",
          "type": "address"
        },
        {
          "indexed": false,
          "name": "user",
          "type": "address"
        },
        {
          "indexed": false,
          "name": "amount",
          "type": "uint256"
        },
        {
          "indexed": false,
          "name": "balance",
          "type": "uint256"
        }
      ],
      "name": "Withdraw",
      "type": "event"
    }
  ],
  "bytecode": "0x608060405234801561001057600080fd5b5061011a806100206000396000f3fe608060405260043610603f576000357c0100000000000000000000000000000000000000000000000000000000900463ffffffff168063b0cc4ba4146044575b600080fd5b348015604f57600080fd5b50607960048036036020811015606457600080fd5b810190808035906020019092919050505060bb565b604051808273ffffffffffffffffffffffffffffffffffffffff1673ffffffffffffffffffffffffffffffffffffffff16815260200191505060405180910390f35b60006020528060005260406000206000915054906101000a900473ffffffffffffffffffffffffffffffffffffffff168156fea165627a7a723058208cca8156e9072a5536929d4cd9794f7559fe1a7ed67e0b187aff2cc3eecabc750029",
  "source": "pragma solidity ^0.5.0;\n\nimport \"./Token.sol\";\nimport \"openzeppelin-solidity/contracts/math/SafeMath.sol\";\n\ncontract Base {\n    using SafeMath for uint;\n    mapping(uint=>address) public takenSubscribers;\n\n\n    struct _Chit {\n        uint id;\n        address foreman;\n        address[] subscribers;\n        uint token;\n        uint totalChit;\n        uint16 chitPeriod;\n        uint256 timeStamp;\n    }\n    \n    event createChit(uint id, address foreman, address[] subscribers, uint16 chitPeriod, uint256 timeStamp);\n    event transferChit(address foreman, address[] subscribers, uint16 chitPeriod, uint256 timeStamp);\n    event Deposit(address token, address user, uint256 amount, uint256 balance);\n    event Withdraw(address token, address user, uint256 amount, uint256 balance);\n\n    // function balanceOf(address _token, address _user) public view returns (uint256) {\n        // return tokens[_token][_user];\n    // }\n\n    /*function conductChit(uint _id, address _foreman, address[] memory _subscribers, uint16 _chitPeriod, uint256 _timeStamp) public {\n        i = subscribers.length();\n        for(i = 0; i < subscibers.length; i ++){\n            require(subscribers[i] != takenSubscribers[i]);\n            depositToken(subscribers[]);\n        }\n\n    }\n    */\n\n}\n    ",
  "sourcePath": "/Users/alankrutha/ChitFund/src/contracts/Base.sol",
  "compiler": {
    "name": "solc",
    "version": "0.5.0+commit.1d4f565a.Emscripten.clang"
  },
  "schemaVersion": "3.0.9",
  "updatedAt": "2019-05-20T07:29:42.836Z",
  "devdoc": {
    "methods": {}
  },
  "userdoc": {
    "methods": {}
  }
}